{
  "contractName": "Assemblee",
  "abi": [
    {
      "constant": false,
      "inputs": [
        {
          "name": "indice",
          "type": "uint256"
        }
      ],
      "name": "fermerDecision",
      "outputs": [],
      "payable": false,
      "stateMutability": "nonpayable",
      "type": "function"
    },
    {
      "constant": true,
      "inputs": [],
      "name": "nomAssemblee",
      "outputs": [
        {
          "name": "",
          "type": "string"
        }
      ],
      "payable": false,
      "stateMutability": "view",
      "type": "function"
    },
    {
      "constant": false,
      "inputs": [],
      "name": "rejoindre",
      "outputs": [],
      "payable": false,
      "stateMutability": "nonpayable",
      "type": "function"
    },
    {
      "constant": false,
      "inputs": [],
      "name": "demissionnerAdministrateur",
      "outputs": [],
      "payable": false,
      "stateMutability": "nonpayable",
      "type": "function"
    },
    {
      "constant": false,
      "inputs": [
        {
          "name": "membre",
          "type": "address"
        }
      ],
      "name": "nommerAdministrateur",
      "outputs": [],
      "payable": false,
      "stateMutability": "nonpayable",
      "type": "function"
    },
    {
      "constant": false,
      "inputs": [
        {
          "name": "utilisateur",
          "type": "address"
        }
      ],
      "name": "donnerBlame",
      "outputs": [],
      "payable": false,
      "stateMutability": "nonpayable",
      "type": "function"
    },
    {
      "constant": true,
      "inputs": [
        {
          "name": "utilisateur",
          "type": "address"
        }
      ],
      "name": "estMembre",
      "outputs": [
        {
          "name": "",
          "type": "bool"
        }
      ],
      "payable": false,
      "stateMutability": "view",
      "type": "function"
    },
    {
      "constant": true,
      "inputs": [
        {
          "name": "utilisateur",
          "type": "address"
        }
      ],
      "name": "estAdministrateur",
      "outputs": [
        {
          "name": "",
          "type": "bool"
        }
      ],
      "payable": false,
      "stateMutability": "view",
      "type": "function"
    },
    {
      "inputs": [
        {
          "name": "nom",
          "type": "string"
        }
      ],
      "payable": false,
      "stateMutability": "nonpayable",
      "type": "constructor"
    },
    {
      "constant": false,
      "inputs": [
        {
          "name": "decision",
          "type": "string"
        }
      ],
      "name": "proposerDecision",
      "outputs": [],
      "payable": false,
      "stateMutability": "nonpayable",
      "type": "function"
    },
    {
      "constant": false,
      "inputs": [
        {
          "name": "indice",
          "type": "uint256"
        },
        {
          "name": "vote",
          "type": "uint256"
        }
      ],
      "name": "voter",
      "outputs": [],
      "payable": false,
      "stateMutability": "nonpayable",
      "type": "function"
    },
    {
      "constant": true,
      "inputs": [
        {
          "name": "indice",
          "type": "uint256"
        }
      ],
      "name": "comptabiliser",
      "outputs": [
        {
          "name": "",
          "type": "int256"
        }
      ],
      "payable": false,
      "stateMutability": "view",
      "type": "function"
    }
  ],
  "bytecode": "0x60806040523480156200001157600080fd5b506040516200175838038062001758833981018060405260208110156200003757600080fd5b8101908080516401000000008111156200005057600080fd5b828101905060208101848111156200006757600080fd5b81518560018202830111640100000000821117156200008557600080fd5b50509291905050508060039080519060200190620000a5929190620001c0565b50600060408051908101604052803373ffffffffffffffffffffffffffffffffffffffff16815260200160008152509080600181540180825580915050906001820390600052602060002090600202016000909192909190915060008201518160000160006101000a81548173ffffffffffffffffffffffffffffffffffffffff021916908373ffffffffffffffffffffffffffffffffffffffff1602179055506020820151816001015550505060023390806001815401808255809150509060018203906000526020600020016000909192909190916101000a81548173ffffffffffffffffffffffffffffffffffffffff021916908373ffffffffffffffffffffffffffffffffffffffff16021790555050506200026f565b828054600181600116156101000203166002900490600052602060002090601f016020900481019282601f106200020357805160ff191683800117855562000234565b8280016001018555821562000234579182015b828111156200023357825182559160200191906001019062000216565b5b50905062000243919062000247565b5090565b6200026c91905b80821115620002685760008160009055506001016200024e565b5090565b90565b6114d9806200027f6000396000f3fe6080604052600436106100af576000357c0100000000000000000000000000000000000000000000000000000000900463ffffffff1680630a20d48b146100b45780631bb5ee09146101035780633690355d1461013e5780633a9c1446146101ce57806362c14aec146101e55780636afd34db146101fc5780639e47466e146102c4578063afdcc74014610315578063b0a3734a14610366578063d3856f3b146103cf578063eae4cd6014610414575b600080fd5b3480156100c057600080fd5b506100ed600480360360208110156100d757600080fd5b810190808035906020019092919050505061047d565b6040518082815260200191505060405180910390f35b34801561010f57600080fd5b5061013c6004803603602081101561012657600080fd5b81019080803590602001909291905050506104c9565b005b34801561014a57600080fd5b506101536105a8565b6040518080602001828103825283818151815260200191508051906020019080838360005b83811015610193578082015181840152602081019050610178565b50505050905090810190601f1680156101c05780820380516001836020036101000a031916815260200191505b509250505060405180910390f35b3480156101da57600080fd5b506101e3610646565b005b3480156101f157600080fd5b506101fa6106f5565b005b34801561020857600080fd5b506102c26004803603602081101561021f57600080fd5b810190808035906020019064010000000081111561023c57600080fd5b82018360208201111561024e57600080fd5b8035906020019184600183028401116401000000008311171561027057600080fd5b91908080601f016020809104026020016040519081016040528093929190818152602001838380828437600081840152601f19601f820116905080830192505050505050509192919290505050610879565b005b3480156102d057600080fd5b50610313600480360360208110156102e757600080fd5b81019080803573ffffffffffffffffffffffffffffffffffffffff1690602001909291905050506109b1565b005b34801561032157600080fd5b506103646004803603602081101561033857600080fd5b81019080803573ffffffffffffffffffffffffffffffffffffffff169060200190929190505050610bde565b005b34801561037257600080fd5b506103b56004803603602081101561038957600080fd5b81019080803573ffffffffffffffffffffffffffffffffffffffff169060200190929190505050610dc2565b604051808215151515815260200191505060405180910390f35b3480156103db57600080fd5b50610412600480360360408110156103f257600080fd5b810190808035906020019092919080359060200190929190505050610e69565b005b34801561042057600080fd5b506104636004803603602081101561043757600080fd5b81019080803573ffffffffffffffffffffffffffffffffffffffff16906020019092919050505061125f565b604051808215151515815260200191505060405180910390f35b600060018281548110151561048e57fe5b9060005260206000209060060201600201546001838154811015156104af57fe5b906000526020600020906006020160010154039050919050565b6104d23361125f565b151561056c576040517f08c379a00000000000000000000000000000000000000000000000000000000081526004018080602001828103825260238152602001807f4c2761647265737365206e27657374207061732061646d696e6973747261746581526020017f75722e000000000000000000000000000000000000000000000000000000000081525060400191505060405180910390fd5b600060018281548110151561057d57fe5b906000526020600020906006020160040160006101000a81548160ff02191690831515021790555050565b60038054600181600116156101000203166002900480601f01602080910402602001604051908101604052809291908181526020018280546001816001161561010002031660029004801561063e5780601f106106135761010080835404028352916020019161063e565b820191906000526020600020905b81548152906001019060200180831161062157829003601f168201915b505050505081565b600060408051908101604052803373ffffffffffffffffffffffffffffffffffffffff16815260200160008152509080600181540180825580915050906001820390600052602060002090600202016000909192909190915060008201518160000160006101000a81548173ffffffffffffffffffffffffffffffffffffffff021916908373ffffffffffffffffffffffffffffffffffffffff16021790555060208201518160010155505050565b60008090505b600280549050811015610876573373ffffffffffffffffffffffffffffffffffffffff1660028281548110151561072e57fe5b9060005260206000200160009054906101000a900473ffffffffffffffffffffffffffffffffffffffff1673ffffffffffffffffffffffffffffffffffffffff16141561086957600260016002805490500381548110151561078c57fe5b9060005260206000200160009054906101000a900473ffffffffffffffffffffffffffffffffffffffff166002828154811015156107c657fe5b9060005260206000200160006101000a81548173ffffffffffffffffffffffffffffffffffffffff021916908373ffffffffffffffffffffffffffffffffffffffff160217905550600260016002805490500381548110151561082557fe5b9060005260206000200160006101000a81549073ffffffffffffffffffffffffffffffffffffffff0219169055600280548091906001900361086791906113dc565b505b80806001019150506106fb565b50565b61088233610dc2565b15156108f6576040517f08c379a000000000000000000000000000000000000000000000000000000000815260040180806020018281038252601b8152602001807f4c2761647265737365206e2765737420706173206d656d6272652e000000000081525060200191505060405180910390fd5b600160a06040519081016040528083815260200160008152602001600081526020014281526020016001151581525090806001815401808255809150509060018203906000526020600020906006020160009091929091909150600082015181600001908051906020019061096c929190611408565b5060208201518160010155604082015181600201556060820151816003015560808201518160040160006101000a81548160ff02191690831515021790555050505050565b6109ba3361125f565b1515610a54576040517f08c379a00000000000000000000000000000000000000000000000000000000081526004018080602001828103825260238152602001807f4c2761647265737365206e27657374207061732061646d696e6973747261746581526020017f75722e000000000000000000000000000000000000000000000000000000000081525060400191505060405180910390fd5b610a5d8161125f565b151515610af8576040517f08c379a00000000000000000000000000000000000000000000000000000000081526004018080602001828103825260238152602001807f4c2761647265737365206573742064c3a96ac3a02061646d696e69737472617481526020017f657572000000000000000000000000000000000000000000000000000000000081525060400191505060405180910390fd5b610b0181610dc2565b1515610b75576040517f08c379a000000000000000000000000000000000000000000000000000000000815260040180806020018281038252601b8152602001807f4c2761647265737365206e2765737420706173206d656d6272652e000000000081525060200191505060405180910390fd5b60028190806001815401808255809150509060018203906000526020600020016000909192909190916101000a81548173ffffffffffffffffffffffffffffffffffffffff021916908373ffffffffffffffffffffffffffffffffffffffff1602179055505050565b610be73361125f565b1515610c81576040517f08c379a00000000000000000000000000000000000000000000000000000000081526004018080602001828103825260238152602001807f4c2761647265737365206e27657374207061732061646d696e6973747261746581526020017f75722e000000000000000000000000000000000000000000000000000000000081525060400191505060405180910390fd5b60008090505b600080549050811015610dbe578173ffffffffffffffffffffffffffffffffffffffff16600082815481101515610cba57fe5b906000526020600020906002020160000160009054906101000a900473ffffffffffffffffffffffffffffffffffffffff1673ffffffffffffffffffffffffffffffffffffffff161415610d38576001600082815481101515610d1957fe5b9060005260206000209060020201600101600082825401925050819055505b6002600082815481101515610d4957fe5b9060005260206000209060020201600101541415610db157600081815481101515610d7057fe5b9060005260206000209060020201600080820160006101000a81549073ffffffffffffffffffffffffffffffffffffffff0219169055600182016000905550505b8080600101915050610c87565b5050565b600080600090505b600080549050811015610e62578273ffffffffffffffffffffffffffffffffffffffff16600082815481101515610dfd57fe5b906000526020600020906002020160000160009054906101000a900473ffffffffffffffffffffffffffffffffffffffff1673ffffffffffffffffffffffffffffffffffffffff161415610e55576001915050610e64565b8080600101915050610dca565b505b919050565b610e7233610dc2565b1515610ee6576040517f08c379a000000000000000000000000000000000000000000000000000000000815260040180806020018281038252601b8152602001807f4c2761647265737365206e2765737420706173206d656d6272652e000000000081525060200191505060405180910390fd5b6001811480610ef55750600081145b1515610f69576040517f08c379a00000000000000000000000000000000000000000000000000000000081526004018080602001828103825260158152602001807f53656e7320647520766f7465203a2030206f752031000000000000000000000081525060200191505060405180910390fd5b610f72826112ff565b1515610fe6576040517f08c379a00000000000000000000000000000000000000000000000000000000081526004018080602001828103825260198152602001807f4c276164726573736520612064c3a96ac3a020766f74c3a92e0000000000000081525060200191505060405180910390fd5b610fef82611374565b1515611089576040517f08c379a00000000000000000000000000000000000000000000000000000000081526004018080602001828103825260278152602001807f4c276164726573736520612064c3a970617373c3a9206c652074656d7073206481526020017f6520766f74652e0000000000000000000000000000000000000000000000000081525060400191505060405180910390fd5b611092826113a5565b1515611106576040517f08c379a000000000000000000000000000000000000000000000000000000000815260040180806020018281038252601b8152602001807f4c612070726f706f736974696f6e20657374206665726dc3a9652e000000000081525060200191505060405180910390fd5b60018114156111b7576001808381548110151561111f57fe5b9060005260206000209060060201600101600082825401925050819055506001808381548110151561114d57fe5b906000526020600020906006020160050160003373ffffffffffffffffffffffffffffffffffffffff1673ffffffffffffffffffffffffffffffffffffffff16815260200190815260200160002060006101000a81548160ff02191690831515021790555061125b565b600180838154811015156111c757fe5b906000526020600020906006020160020160008282540192505081905550600180838154811015156111f557fe5b906000526020600020906006020160050160003373ffffffffffffffffffffffffffffffffffffffff1673ffffffffffffffffffffffffffffffffffffffff16815260200190815260200160002060006101000a81548160ff0219169083151502179055505b5050565b600080600090505b6002805490508110156112f8578273ffffffffffffffffffffffffffffffffffffffff1660028281548110151561129a57fe5b9060005260206000200160009054906101000a900473ffffffffffffffffffffffffffffffffffffffff1673ffffffffffffffffffffffffffffffffffffffff1614156112eb5760019150506112fa565b8080600101915050611267565b505b919050565b600060018281548110151561131057fe5b906000526020600020906006020160050160003373ffffffffffffffffffffffffffffffffffffffff1673ffffffffffffffffffffffffffffffffffffffff16815260200190815260200160002060009054906101000a900460ff16159050919050565b600062093a8060018381548110151561138957fe5b9060005260206000209060060201600301540142109050919050565b60006001828154811015156113b657fe5b906000526020600020906006020160040160009054906101000a900460ff169050919050565b815481835581811115611403578183600052602060002091820191016114029190611488565b5b505050565b828054600181600116156101000203166002900490600052602060002090601f016020900481019282601f1061144957805160ff1916838001178555611477565b82800160010185558215611477579182015b8281111561147657825182559160200191906001019061145b565b5b5090506114849190611488565b5090565b6114aa91905b808211156114a657600081600090555060010161148e565b5090565b9056fea165627a7a72305820087ffd2ec2e0e635c977870dc6d5bd5f1885f900aeee0aa17006b9f0905dffc90029",
  "source": "pragma solidity ^0.5.0;\nimport \"./AvecAdministrateurs.sol\";\n\ncontract Assemblee is AvecAdministrateurs {\n\n    string public nomAssemblee;\n\n    constructor(string memory nom) public {\n        nomAssemblee = nom;\n        membres.push(Membre(msg.sender,0));\n        administrateurs.push(msg.sender);\n    }\n\n    function pasVote(uint indice) internal view returns (bool) {\n        return ! decisions[indice].aVote[msg.sender];\n    }\n\n    function tempsVote(uint indice) internal view returns (bool) {\n        return now < decisions[indice].start + 7 days;\n    }\n\n    function voteOuvert(uint indice) internal view returns (bool) {\n        return decisions[indice].open;\n    }\n\n    modifier onlyMember() {\n        require(estMembre(msg.sender), \"L'adresse n'est pas membre.\");\n        _;\n    }\n\n    function proposerDecision(string memory decision) public onlyMember {\n      decisions.push(Decision(decision,0,0,now,true));\n    }\n\n    function voter(uint indice, uint vote) public onlyMember {\n        require(vote == 1 || vote == 0, \"Sens du vote : 0 ou 1\");\n        require(pasVote(indice), \"L'adresse a déjà voté.\");\n        require(tempsVote(indice), \"L'adresse a dépassé le temps de vote.\");\n        require(voteOuvert(indice), \"La proposition est fermée.\");\n        if (vote == 1) {\n            decisions[indice].votePour += 1;\n            decisions[indice].aVote[msg.sender] = true;\n        } else {\n            decisions[indice].voteContre += 1;\n            decisions[indice].aVote[msg.sender] = true;\n        }\n    }\n\n    function comptabiliser (uint indice) public view returns (int) {\n        return (int(decisions[indice].votePour) - int(decisions[indice].voteContre));\n    }\n\n}\n",
  "sourcePath": "/Users/laurent/Documents/GitHub/alyra/3/1/3/1/contracts/3.1.3.1.sol",
  "compiler": {
    "name": "solc",
    "version": "0.5.0+commit.1d4f565a.Emscripten.clang"
  },
  "schemaVersion": "3.0.2",
  "updatedAt": "2019-03-10T16:38:01.501Z",
  "devdoc": {
    "methods": {}
  },
  "userdoc": {
    "methods": {}
  }
}