{
  "contractName": "AvecMembres",
  "abi": [
    {
      "constant": true,
      "inputs": [
        {
          "name": "utilisateur",
          "type": "address"
        }
      ],
      "name": "estMembre",
      "outputs": [
        {
          "name": "",
          "type": "bool"
        }
      ],
      "payable": false,
      "stateMutability": "view",
      "type": "function"
    },
    {
      "constant": false,
      "inputs": [],
      "name": "rejoindre",
      "outputs": [],
      "payable": false,
      "stateMutability": "nonpayable",
      "type": "function"
    }
  ],
  "bytecode": "0x608060405234801561001057600080fd5b50610253806100206000396000f3fe60806040526004361061004c576000357c0100000000000000000000000000000000000000000000000000000000900463ffffffff1680633a9c144614610051578063b0a3734a14610068575b600080fd5b34801561005d57600080fd5b506100666100d1565b005b34801561007457600080fd5b506100b76004803603602081101561008b57600080fd5b81019080803573ffffffffffffffffffffffffffffffffffffffff169060200190929190505050610180565b604051808215151515815260200191505060405180910390f35b600060408051908101604052803373ffffffffffffffffffffffffffffffffffffffff16815260200160008152509080600181540180825580915050906001820390600052602060002090600202016000909192909190915060008201518160000160006101000a81548173ffffffffffffffffffffffffffffffffffffffff021916908373ffffffffffffffffffffffffffffffffffffffff16021790555060208201518160010155505050565b600080600090505b600080549050811015610220578273ffffffffffffffffffffffffffffffffffffffff166000828154811015156101bb57fe5b906000526020600020906002020160000160009054906101000a900473ffffffffffffffffffffffffffffffffffffffff1673ffffffffffffffffffffffffffffffffffffffff161415610213576001915050610222565b8080600101915050610188565b505b91905056fea165627a7a72305820c8fdee0ae14a294624d7c25f11505143c8befe0b5ee3137b1022ac8b3be4610f0029",
  "source": "pragma solidity ^0.5.0;\n\ncontract AvecMembres {\n\n    struct Membre {\n        address id;\n        uint blame;\n    }\n\n    Membre[] membres;\n\n    function estMembre(address utilisateur) public view returns (bool) {\n        for (uint i=0; i<membres.length; i++) {\n            if (membres[i].id == utilisateur) {\n                return true;\n            }\n        }\n    }\n\n    function rejoindre() public {\n        membres.push(Membre(msg.sender,0));\n    }\n\n\n}\n",
  "sourcePath": "/Users/laurent/Documents/GitHub/alyra/3/1/3/1/contracts/AvecMembres.sol",
  "compiler": {
    "name": "solc",
    "version": "0.5.0+commit.1d4f565a.Emscripten.clang"
  },
  "schemaVersion": "3.0.2",
  "updatedAt": "2019-03-10T16:38:01.517Z",
  "devdoc": {
    "methods": {}
  },
  "userdoc": {
    "methods": {}
  }
}