{
  "contractName": "AvecAdministrateurs",
  "abi": [
    {
      "constant": false,
      "inputs": [],
      "name": "rejoindre",
      "outputs": [],
      "payable": false,
      "stateMutability": "nonpayable",
      "type": "function"
    },
    {
      "constant": true,
      "inputs": [
        {
          "name": "utilisateur",
          "type": "address"
        }
      ],
      "name": "estMembre",
      "outputs": [
        {
          "name": "",
          "type": "bool"
        }
      ],
      "payable": false,
      "stateMutability": "view",
      "type": "function"
    },
    {
      "constant": true,
      "inputs": [
        {
          "name": "utilisateur",
          "type": "address"
        }
      ],
      "name": "estAdministrateur",
      "outputs": [
        {
          "name": "",
          "type": "bool"
        }
      ],
      "payable": false,
      "stateMutability": "view",
      "type": "function"
    },
    {
      "constant": false,
      "inputs": [
        {
          "name": "membre",
          "type": "address"
        }
      ],
      "name": "nommerAdministrateur",
      "outputs": [],
      "payable": false,
      "stateMutability": "nonpayable",
      "type": "function"
    },
    {
      "constant": false,
      "inputs": [],
      "name": "demissionnerAdministrateur",
      "outputs": [],
      "payable": false,
      "stateMutability": "nonpayable",
      "type": "function"
    },
    {
      "constant": false,
      "inputs": [
        {
          "name": "indice",
          "type": "uint256"
        }
      ],
      "name": "fermerDecision",
      "outputs": [],
      "payable": false,
      "stateMutability": "nonpayable",
      "type": "function"
    },
    {
      "constant": false,
      "inputs": [
        {
          "name": "utilisateur",
          "type": "address"
        }
      ],
      "name": "donnerBlame",
      "outputs": [],
      "payable": false,
      "stateMutability": "nonpayable",
      "type": "function"
    }
  ],
  "bytecode": "0x608060405234801561001057600080fd5b50610b4c806100206000396000f3fe608060405260043610610083576000357c0100000000000000000000000000000000000000000000000000000000900463ffffffff1680631bb5ee09146100885780633a9c1446146100c357806362c14aec146100da5780639e47466e146100f1578063afdcc74014610142578063b0a3734a14610193578063eae4cd60146101fc575b600080fd5b34801561009457600080fd5b506100c1600480360360208110156100ab57600080fd5b8101908080359060200190929190505050610265565b005b3480156100cf57600080fd5b506100d8610344565b005b3480156100e657600080fd5b506100ef6103f3565b005b3480156100fd57600080fd5b506101406004803603602081101561011457600080fd5b81019080803573ffffffffffffffffffffffffffffffffffffffff169060200190929190505050610577565b005b34801561014e57600080fd5b506101916004803603602081101561016557600080fd5b81019080803573ffffffffffffffffffffffffffffffffffffffff1690602001909291905050506107a4565b005b34801561019f57600080fd5b506101e2600480360360208110156101b657600080fd5b81019080803573ffffffffffffffffffffffffffffffffffffffff169060200190929190505050610988565b604051808215151515815260200191505060405180910390f35b34801561020857600080fd5b5061024b6004803603602081101561021f57600080fd5b81019080803573ffffffffffffffffffffffffffffffffffffffff169060200190929190505050610a2f565b604051808215151515815260200191505060405180910390f35b61026e33610a2f565b1515610308576040517f08c379a00000000000000000000000000000000000000000000000000000000081526004018080602001828103825260238152602001807f4c2761647265737365206e27657374207061732061646d696e6973747261746581526020017f75722e000000000000000000000000000000000000000000000000000000000081525060400191505060405180910390fd5b600060018281548110151561031957fe5b906000526020600020906006020160040160006101000a81548160ff02191690831515021790555050565b600060408051908101604052803373ffffffffffffffffffffffffffffffffffffffff16815260200160008152509080600181540180825580915050906001820390600052602060002090600202016000909192909190915060008201518160000160006101000a81548173ffffffffffffffffffffffffffffffffffffffff021916908373ffffffffffffffffffffffffffffffffffffffff16021790555060208201518160010155505050565b60008090505b600280549050811015610574573373ffffffffffffffffffffffffffffffffffffffff1660028281548110151561042c57fe5b9060005260206000200160009054906101000a900473ffffffffffffffffffffffffffffffffffffffff1673ffffffffffffffffffffffffffffffffffffffff16141561056757600260016002805490500381548110151561048a57fe5b9060005260206000200160009054906101000a900473ffffffffffffffffffffffffffffffffffffffff166002828154811015156104c457fe5b9060005260206000200160006101000a81548173ffffffffffffffffffffffffffffffffffffffff021916908373ffffffffffffffffffffffffffffffffffffffff160217905550600260016002805490500381548110151561052357fe5b9060005260206000200160006101000a81549073ffffffffffffffffffffffffffffffffffffffff021916905560028054809190600190036105659190610acf565b505b80806001019150506103f9565b50565b61058033610a2f565b151561061a576040517f08c379a00000000000000000000000000000000000000000000000000000000081526004018080602001828103825260238152602001807f4c2761647265737365206e27657374207061732061646d696e6973747261746581526020017f75722e000000000000000000000000000000000000000000000000000000000081525060400191505060405180910390fd5b61062381610a2f565b1515156106be576040517f08c379a00000000000000000000000000000000000000000000000000000000081526004018080602001828103825260238152602001807f4c2761647265737365206573742064c3a96ac3a02061646d696e69737472617481526020017f657572000000000000000000000000000000000000000000000000000000000081525060400191505060405180910390fd5b6106c781610988565b151561073b576040517f08c379a000000000000000000000000000000000000000000000000000000000815260040180806020018281038252601b8152602001807f4c2761647265737365206e2765737420706173206d656d6272652e000000000081525060200191505060405180910390fd5b60028190806001815401808255809150509060018203906000526020600020016000909192909190916101000a81548173ffffffffffffffffffffffffffffffffffffffff021916908373ffffffffffffffffffffffffffffffffffffffff1602179055505050565b6107ad33610a2f565b1515610847576040517f08c379a00000000000000000000000000000000000000000000000000000000081526004018080602001828103825260238152602001807f4c2761647265737365206e27657374207061732061646d696e6973747261746581526020017f75722e000000000000000000000000000000000000000000000000000000000081525060400191505060405180910390fd5b60008090505b600080549050811015610984578173ffffffffffffffffffffffffffffffffffffffff1660008281548110151561088057fe5b906000526020600020906002020160000160009054906101000a900473ffffffffffffffffffffffffffffffffffffffff1673ffffffffffffffffffffffffffffffffffffffff1614156108fe5760016000828154811015156108df57fe5b9060005260206000209060020201600101600082825401925050819055505b600260008281548110151561090f57fe5b90600052602060002090600202016001015414156109775760008181548110151561093657fe5b9060005260206000209060020201600080820160006101000a81549073ffffffffffffffffffffffffffffffffffffffff0219169055600182016000905550505b808060010191505061084d565b5050565b600080600090505b600080549050811015610a28578273ffffffffffffffffffffffffffffffffffffffff166000828154811015156109c357fe5b906000526020600020906002020160000160009054906101000a900473ffffffffffffffffffffffffffffffffffffffff1673ffffffffffffffffffffffffffffffffffffffff161415610a1b576001915050610a2a565b8080600101915050610990565b505b919050565b600080600090505b600280549050811015610ac8578273ffffffffffffffffffffffffffffffffffffffff16600282815481101515610a6a57fe5b9060005260206000200160009054906101000a900473ffffffffffffffffffffffffffffffffffffffff1673ffffffffffffffffffffffffffffffffffffffff161415610abb576001915050610aca565b8080600101915050610a37565b505b919050565b815481835581811115610af657818360005260206000209182019101610af59190610afb565b5b505050565b610b1d91905b80821115610b19576000816000905550600101610b01565b5090565b9056fea165627a7a723058207a22088b28689b7b4832769dd6a12f8f9ea879a905e0ae5bd518df2db869c4ad0029",
  "source": "pragma solidity ^0.5.0;\nimport \"./AvecMembres.sol\";\nimport \"./AvecDecisions.sol\";\n\ncontract AvecAdministrateurs is AvecMembres, AvecDecisions {\n\n    address[] administrateurs;\n\n    function estAdministrateur(address utilisateur) public view returns (bool) {\n        for (uint i=0; i<administrateurs.length; i++) {\n            if (administrateurs[i] == utilisateur) {\n                return true;\n            }\n        }\n    }\n\n    function nommerAdministrateur(address membre) public {\n        require(estAdministrateur(msg.sender), \"L'adresse n'est pas administrateur.\");\n        require(! estAdministrateur(membre), \"L'adresse est déjà administrateur\"); // ajouter\n        require(estMembre(membre), \"L'adresse n'est pas membre.\");\n        administrateurs.push(membre);\n    }\n\n    function demissionnerAdministrateur() public {\n        for (uint i=0; i<administrateurs.length; i++) {\n            if (administrateurs[i] == msg.sender) {\n                administrateurs[i] = administrateurs[administrateurs.length - 1]; // ajouter\n                delete administrateurs[administrateurs.length - 1]; // ajouter\n                administrateurs.length--; // ajouter\n            }\n        }\n    }\n\n    function fermerDecision(uint indice) public {\n        require(estAdministrateur(msg.sender), \"L'adresse n'est pas administrateur.\");\n        decisions[indice].open = false;\n    }\n\n    function donnerBlame(address utilisateur) public {\n      require(estAdministrateur(msg.sender), \"L'adresse n'est pas administrateur.\");\n      for (uint i=0; i<membres.length; i++) {\n          if (membres[i].id == utilisateur) {\n              membres[i].blame += 1;\n          }\n          if (membres[i].blame == 2) {\n              delete membres[i];\n          }\n      }\n    }\n}\n",
  "sourcePath": "/Users/laurent/Documents/GitHub/alyra/3/1/3/1/contracts/AvecAdministrateurs.sol",
  "compiler": {
    "name": "solc",
    "version": "0.5.0+commit.1d4f565a.Emscripten.clang"
  },
  "schemaVersion": "3.0.2",
  "updatedAt": "2019-03-10T16:38:01.504Z",
  "devdoc": {
    "methods": {}
  },
  "userdoc": {
    "methods": {}
  }
}