{
  "contractName": "Cogere",
  "abi": [
    {
      "inputs": [],
      "payable": false,
      "stateMutability": "nonpayable",
      "type": "constructor"
    },
    {
      "constant": false,
      "inputs": [
        {
          "name": "orga",
          "type": "address"
        },
        {
          "name": "parts",
          "type": "uint256"
        }
      ],
      "name": "transfererOrga",
      "outputs": [],
      "payable": false,
      "stateMutability": "nonpayable",
      "type": "function"
    },
    {
      "constant": true,
      "inputs": [
        {
          "name": "orga",
          "type": "address"
        }
      ],
      "name": "estOrga",
      "outputs": [
        {
          "name": "",
          "type": "bool"
        }
      ],
      "payable": false,
      "stateMutability": "view",
      "type": "function"
    }
  ],
  "bytecode": "0x608060405234801561001057600080fd5b5060646000803373ffffffffffffffffffffffffffffffffffffffff1673ffffffffffffffffffffffffffffffffffffffff16815260200190815260200160002081905550610280806100646000396000f3fe60806040526004361061004c576000357c0100000000000000000000000000000000000000000000000000000000900463ffffffff168063c546a80214610051578063e69752ea146100ac575b600080fd5b34801561005d57600080fd5b506100aa6004803603604081101561007457600080fd5b81019080803573ffffffffffffffffffffffffffffffffffffffff16906020019092919080359060200190929190505050610115565b005b3480156100b857600080fd5b506100fb600480360360208110156100cf57600080fd5b81019080803573ffffffffffffffffffffffffffffffffffffffff1690602001909291905050506101fd565b604051808215151515815260200191505060405180910390f35b6000803373ffffffffffffffffffffffffffffffffffffffff1673ffffffffffffffffffffffffffffffffffffffff168152602001908152602001600020548110151561016157600080fd5b806000808473ffffffffffffffffffffffffffffffffffffffff1673ffffffffffffffffffffffffffffffffffffffff16815260200190815260200160002060008282540192505081905550806000803373ffffffffffffffffffffffffffffffffffffffff1673ffffffffffffffffffffffffffffffffffffffff168152602001908152602001600020600082825403925050819055505050565b6000806000808473ffffffffffffffffffffffffffffffffffffffff1673ffffffffffffffffffffffffffffffffffffffff16815260200190815260200160002054111561024e576001905061024f565b5b91905056fea165627a7a72305820f43622301e0097e58f9ab6844cddb8d4f375d122a06931720d2f671d688a6d2f0029",
  "source": "pragma solidity ^0.5.0;\n\ncontract Cogere {\n\n    mapping (address => uint) organisateurs;\n\n    constructor() public {\n        organisateurs[msg.sender] = 100;\n    }\n\n    function transfererOrga(address orga, uint parts) public {\n        require(parts < organisateurs[msg.sender]);\n        organisateurs[orga] += parts;\n        organisateurs[msg.sender] -= parts;\n    }\n\n    function estOrga(address orga) public view returns (bool) {\n        if (organisateurs[orga] > 0) {\n            return true;\n        }\n    }\n    \n}\n",
  "sourcePath": "/Users/laurent/Documents/GitHub/alyra/3/2/1/contracts/3.2.1.sol",
  "compiler": {
    "name": "solc",
    "version": "0.5.0+commit.1d4f565a.Emscripten.clang"
  },
  "schemaVersion": "3.0.2",
  "updatedAt": "2019-03-16T11:31:08.000Z",
  "devdoc": {
    "methods": {}
  },
  "userdoc": {
    "methods": {}
  }
}